{
  "contractName": "ParkDContract",
  "abi": [
    {
      "inputs": [
        {
          "internalType": "uint256",
          "name": "",
          "type": "uint256"
        },
        {
          "internalType": "uint256",
          "name": "",
          "type": "uint256"
        }
      ],
      "name": "reservations",
      "outputs": [
        {
          "internalType": "uint256",
          "name": "resTimeIn",
          "type": "uint256"
        },
        {
          "internalType": "uint256",
          "name": "resTimeOut",
          "type": "uint256"
        },
        {
          "internalType": "address",
          "name": "guestID",
          "type": "address"
        }
      ],
      "stateMutability": "view",
      "type": "function",
      "constant": true
    },
    {
      "inputs": [],
      "name": "query",
      "outputs": [
        {
          "components": [
            {
              "internalType": "uint256",
              "name": "ID",
              "type": "uint256"
            },
            {
              "internalType": "string",
              "name": "LatLong",
              "type": "string"
            },
            {
              "internalType": "string",
              "name": "Address",
              "type": "string"
            },
            {
              "internalType": "string",
              "name": "Type",
              "type": "string"
            },
            {
              "internalType": "address",
              "name": "HostID",
              "type": "address"
            },
            {
              "internalType": "address",
              "name": "GuestID",
              "type": "address"
            },
            {
              "internalType": "uint256",
              "name": "Price",
              "type": "uint256"
            }
          ],
          "internalType": "struct ParkDContract.Spot[]",
          "name": "",
          "type": "tuple[]"
        }
      ],
      "stateMutability": "view",
      "type": "function",
      "constant": true
    },
    {
      "inputs": [
        {
          "internalType": "uint256",
          "name": "spotID",
          "type": "uint256"
        }
      ],
      "name": "getReservations",
      "outputs": [
        {
          "components": [
            {
              "internalType": "uint256",
              "name": "resTimeIn",
              "type": "uint256"
            },
            {
              "internalType": "uint256",
              "name": "resTimeOut",
              "type": "uint256"
            },
            {
              "internalType": "address",
              "name": "guestID",
              "type": "address"
            }
          ],
          "internalType": "struct ParkDContract.Reservation[]",
          "name": "",
          "type": "tuple[]"
        }
      ],
      "stateMutability": "view",
      "type": "function",
      "constant": true
    },
    {
      "inputs": [
        {
          "internalType": "uint256",
          "name": "spotID",
          "type": "uint256"
        },
        {
          "internalType": "uint256",
          "name": "resTimeIn",
          "type": "uint256"
        },
        {
          "internalType": "uint256",
          "name": "resTimeOut",
          "type": "uint256"
        },
        {
          "internalType": "address",
          "name": "guestID",
          "type": "address"
        }
      ],
      "name": "makeReservation",
      "outputs": [],
      "stateMutability": "nonpayable",
      "type": "function"
    },
    {
      "inputs": [
        {
          "internalType": "string",
          "name": "LatLong",
          "type": "string"
        },
        {
          "internalType": "string",
          "name": "Address",
          "type": "string"
        },
        {
          "internalType": "string",
          "name": "Type",
          "type": "string"
        },
        {
          "internalType": "uint256",
          "name": "Price",
          "type": "uint256"
        }
      ],
      "name": "registerSpot",
      "outputs": [
        {
          "internalType": "uint256",
          "name": "",
          "type": "uint256"
        }
      ],
      "stateMutability": "nonpayable",
      "type": "function"
    }
  ],
  "bytecode": "0x608060405234801561001057600080fd5b50611095806100206000396000f3fe608060405234801561001057600080fd5b50600436106100575760003560e01c80632c46b2051461005c57806330662b7b1461007a57806387100c6a146100ac5780639b450915146100c8578063d6b6d0b5146100f8575b600080fd5b610064610128565b6040516100719190610ac6565b60405180910390f35b610094600480360381019061008f9190610b28565b6103fd565b6040516100a393929190610b86565b60405180910390f35b6100c660048036038101906100c19190610be9565b610464565b005b6100e260048036038101906100dd9190610d85565b61053a565b6040516100ef9190610e40565b60405180910390f35b610112600480360381019061010d9190610e5b565b6106e8565b60405161011f9190610f79565b60405180910390f35b60606000805480602002602001604051908101604052809291908181526020016000905b828210156103f457838290600052602060002090600702016040518060e00160405290816000820154815260200160018201805461018990610fca565b80601f01602080910402602001604051908101604052809291908181526020018280546101b590610fca565b80156102025780601f106101d757610100808354040283529160200191610202565b820191906000526020600020905b8154815290600101906020018083116101e557829003601f168201915b5050505050815260200160028201805461021b90610fca565b80601f016020809104026020016040519081016040528092919081815260200182805461024790610fca565b80156102945780601f1061026957610100808354040283529160200191610294565b820191906000526020600020905b81548152906001019060200180831161027757829003601f168201915b505050505081526020016003820180546102ad90610fca565b80601f01602080910402602001604051908101604052809291908181526020018280546102d990610fca565b80156103265780601f106102fb57610100808354040283529160200191610326565b820191906000526020600020905b81548152906001019060200180831161030957829003601f168201915b505050505081526020016004820160009054906101000a900473ffffffffffffffffffffffffffffffffffffffff1673ffffffffffffffffffffffffffffffffffffffff1673ffffffffffffffffffffffffffffffffffffffff1681526020016005820160009054906101000a900473ffffffffffffffffffffffffffffffffffffffff1673ffffffffffffffffffffffffffffffffffffffff1673ffffffffffffffffffffffffffffffffffffffff1681526020016006820154815250508152602001906001019061014c565b50505050905090565b6001602052816000526040600020818154811061041957600080fd5b9060005260206000209060030201600091509150508060000154908060010154908060020160009054906101000a900473ffffffffffffffffffffffffffffffffffffffff16905083565b600060405180606001604052808581526020018481526020018373ffffffffffffffffffffffffffffffffffffffff16815250905060016000868152602001908152602001600020819080600181540180825580915050600190039060005260206000209060030201600090919091909150600082015181600001556020820151816001015560408201518160020160006101000a81548173ffffffffffffffffffffffffffffffffffffffff021916908373ffffffffffffffffffffffffffffffffffffffff16021790555050505050505050565b6000806040518060e0016040528060008054905081526020018781526020018681526020018581526020013373ffffffffffffffffffffffffffffffffffffffff168152602001600073ffffffffffffffffffffffffffffffffffffffff16815260200184815250905060008190806001815401808255809150506001900390600052602060002090600702016000909190919091506000820151816000015560208201518160010190805190602001906105f69291906107c4565b5060408201518160020190805190602001906106139291906107c4565b5060608201518160030190805190602001906106309291906107c4565b5060808201518160040160006101000a81548173ffffffffffffffffffffffffffffffffffffffff021916908373ffffffffffffffffffffffffffffffffffffffff16021790555060a08201518160050160006101000a81548173ffffffffffffffffffffffffffffffffffffffff021916908373ffffffffffffffffffffffffffffffffffffffff16021790555060c08201518160060155505060016000805490506106dd919061102b565b915050949350505050565b606060016000838152602001908152602001600020805480602002602001604051908101604052809291908181526020016000905b828210156107b9578382906000526020600020906003020160405180606001604052908160008201548152602001600182015481526020016002820160009054906101000a900473ffffffffffffffffffffffffffffffffffffffff1673ffffffffffffffffffffffffffffffffffffffff1673ffffffffffffffffffffffffffffffffffffffff16815250508152602001906001019061071d565b505050509050919050565b8280546107d090610fca565b90600052602060002090601f0160209004810192826107f25760008555610839565b82601f1061080b57805160ff1916838001178555610839565b82800160010185558215610839579182015b8281111561083857825182559160200191906001019061081d565b5b509050610846919061084a565b5090565b5b8082111561086357600081600090555060010161084b565b5090565b600081519050919050565b600082825260208201905092915050565b6000819050602082019050919050565b6000819050919050565b6108a681610893565b82525050565b600081519050919050565b600082825260208201905092915050565b60005b838110156108e65780820151818401526020810190506108cb565b838111156108f5576000848401525b50505050565b6000601f19601f8301169050919050565b6000610917826108ac565b61092181856108b7565b93506109318185602086016108c8565b61093a816108fb565b840191505092915050565b600073ffffffffffffffffffffffffffffffffffffffff82169050919050565b600061097082610945565b9050919050565b61098081610965565b82525050565b600060e08301600083015161099e600086018261089d565b50602083015184820360208601526109b6828261090c565b915050604083015184820360408601526109d0828261090c565b915050606083015184820360608601526109ea828261090c565b91505060808301516109ff6080860182610977565b5060a0830151610a1260a0860182610977565b5060c0830151610a2560c086018261089d565b508091505092915050565b6000610a3c8383610986565b905092915050565b6000602082019050919050565b6000610a5c82610867565b610a668185610872565b935083602082028501610a7885610883565b8060005b85811015610ab45784840389528151610a958582610a30565b9450610aa083610a44565b925060208a01995050600181019050610a7c565b50829750879550505050505092915050565b60006020820190508181036000830152610ae08184610a51565b905092915050565b6000604051905090565b600080fd5b600080fd5b610b0581610893565b8114610b1057600080fd5b50565b600081359050610b2281610afc565b92915050565b60008060408385031215610b3f57610b3e610af2565b5b6000610b4d85828601610b13565b9250506020610b5e85828601610b13565b9150509250929050565b610b7181610893565b82525050565b610b8081610965565b82525050565b6000606082019050610b9b6000830186610b68565b610ba86020830185610b68565b610bb56040830184610b77565b949350505050565b610bc681610965565b8114610bd157600080fd5b50565b600081359050610be381610bbd565b92915050565b60008060008060808587031215610c0357610c02610af2565b5b6000610c1187828801610b13565b9450506020610c2287828801610b13565b9350506040610c3387828801610b13565b9250506060610c4487828801610bd4565b91505092959194509250565b600080fd5b600080fd5b7f4e487b7100000000000000000000000000000000000000000000000000000000600052604160045260246000fd5b610c92826108fb565b810181811067ffffffffffffffff82111715610cb157610cb0610c5a565b5b80604052505050565b6000610cc4610ae8565b9050610cd08282610c89565b919050565b600067ffffffffffffffff821115610cf057610cef610c5a565b5b610cf9826108fb565b9050602081019050919050565b82818337600083830152505050565b6000610d28610d2384610cd5565b610cba565b905082815260208101848484011115610d4457610d43610c55565b5b610d4f848285610d06565b509392505050565b600082601f830112610d6c57610d6b610c50565b5b8135610d7c848260208601610d15565b91505092915050565b60008060008060808587031215610d9f57610d9e610af2565b5b600085013567ffffffffffffffff811115610dbd57610dbc610af7565b5b610dc987828801610d57565b945050602085013567ffffffffffffffff811115610dea57610de9610af7565b5b610df687828801610d57565b935050604085013567ffffffffffffffff811115610e1757610e16610af7565b5b610e2387828801610d57565b9250506060610e3487828801610b13565b91505092959194509250565b6000602082019050610e556000830184610b68565b92915050565b600060208284031215610e7157610e70610af2565b5b6000610e7f84828501610b13565b91505092915050565b600081519050919050565b600082825260208201905092915050565b6000819050602082019050919050565b606082016000820151610eca600085018261089d565b506020820151610edd602085018261089d565b506040820151610ef06040850182610977565b50505050565b6000610f028383610eb4565b60608301905092915050565b6000602082019050919050565b6000610f2682610e88565b610f308185610e93565b9350610f3b83610ea4565b8060005b83811015610f6c578151610f538882610ef6565b9750610f5e83610f0e565b925050600181019050610f3f565b5085935050505092915050565b60006020820190508181036000830152610f938184610f1b565b905092915050565b7f4e487b7100000000000000000000000000000000000000000000000000000000600052602260045260246000fd5b60006002820490506001821680610fe257607f821691505b60208210811415610ff657610ff5610f9b565b5b50919050565b7f4e487b7100000000000000000000000000000000000000000000000000000000600052601160045260246000fd5b600061103682610893565b915061104183610893565b92508282101561105457611053610ffc565b5b82820390509291505056fea2646970667358221220f7a3817bdb061b122e84e983b0cd25667e69ecc8d1933addffb2379ba932cdee64736f6c634300080b0033",
  "immutableReferences": {},
  "source": "// SPDX-License-Identifier: MIT\r\npragma solidity >=0.7.0 <0.9.0;\r\n\r\n/** \r\n * @title ParkDContract\r\n * @dev Implements query() and registerSpot() transactions for ParkD application\r\n */\r\ncontract ParkDContract {\r\n   \r\n    struct Reservation {\r\n        uint resTimeIn;\r\n        uint resTimeOut;\r\n        address guestID;\r\n    }\r\n    \r\n    struct Spot {\r\n        uint ID;\r\n        string LatLong;\r\n        string Address;\r\n        string Type;\r\n        // Photos\r\n        // address is string on hyperledger\r\n        address HostID;\r\n        address GuestID;\r\n        uint Price;\r\n    }\r\n\r\n    Spot[] internal spots;\r\n    mapping(uint => Reservation[]) public reservations;\r\n\r\n    function query() public view returns(Spot[] memory) {\r\n        return spots;\r\n    }\r\n\r\n    function getReservations(uint spotID) public view returns(Reservation[] memory) {\r\n        return reservations[spotID];\r\n    }\r\n\r\n    // 0, 199999, 200000, 0x9e06438DDB4793D37F7D633F00AEb2cb84bE8C8C\r\n    function makeReservation(uint spotID, uint resTimeIn, uint resTimeOut, address guestID) public {\r\n        // Reservation[] memory temp;\r\n        Reservation memory r = Reservation({\r\n            resTimeIn: resTimeIn,\r\n            resTimeOut: resTimeOut,\r\n            guestID: guestID\r\n        });\r\n        // temp.push(r);\r\n        reservations[spotID].push(r);\r\n    }\r\n\r\n    // \"32.782820_-79.938293\", \"58 Coming St, Charleston, South Carolina\", \"Street\", 5\r\n    function registerSpot(string memory LatLong, string memory Address, string memory Type, uint Price) public returns(uint){\r\n        // Reservation[] memory tmp;\r\n        Spot memory s = Spot({\r\n            ID: spots.length,\r\n            LatLong: LatLong,\r\n            Address: Address, \r\n            Type: Type,\r\n            HostID: msg.sender,\r\n            GuestID: address(0),\r\n            Price: Price\r\n        });\r\n        spots.push(s);\r\n        return spots.length - 1;\r\n    }\r\n\r\n\r\n}\r\n",
  "sourcePath": "/home/asd/Desktop/ethereumParkD/contracts/ParkDContract.sol",
  "compiler": {
    "name": "solc",
    "version": "0.8.11+commit.d7f03943.Emscripten.clang"
  },
  "schemaVersion": "3.4.4",
  "updatedAt": "2022-02-04T15:28:50.914Z",
  "networkType": "ethereum",
  "devdoc": {
    "details": "Implements query() and registerSpot() transactions for ParkD application",
    "kind": "dev",
    "methods": {},
    "title": "ParkDContract",
    "version": 1
  },
  "userdoc": {
    "kind": "user",
    "methods": {},
    "version": 1
  }
}